{
  "contractName": "SimpleStorage",
  "abi": [
    {
      "constant": false,
      "inputs": [
        {
          "name": "title",
          "type": "string"
        },
        {
          "name": "subject",
          "type": "string"
        },
        {
          "name": "content",
          "type": "string"
        },
        {
          "name": "imageHash",
          "type": "string"
        },
        {
          "name": "timestamp",
          "type": "string"
        }
      ],
      "name": "setAnnouncement",
      "outputs": [],
      "payable": false,
      "stateMutability": "nonpayable",
      "type": "function"
    },
    {
      "constant": true,
      "inputs": [],
      "name": "getAll",
      "outputs": [
        {
          "name": "",
          "type": "string[]"
        },
        {
          "name": "",
          "type": "string[]"
        },
        {
          "name": "",
          "type": "string[]"
        },
        {
          "name": "",
          "type": "string[]"
        },
        {
          "name": "",
          "type": "address[]"
        },
        {
          "name": "",
          "type": "string[]"
        }
      ],
      "payable": false,
      "stateMutability": "view",
      "type": "function"
    }
  ],
  "bytecode": "0x608060405234801561001057600080fd5b50610d6a806100206000396000f3fe608060405234801561001057600080fd5b50600436106100365760003560e01c806353ed51431461003b578063f9ced9991461005e575b600080fd5b61004361007a565b60405161005596959493929190610b3f565b60405180910390f35b61007860048036036100739190810190610909565b6106be565b005b60608060608060608060606000805490506040519080825280602002602001820160405280156100be57816020015b60608152602001906001900390816100a95790505b50905060606000805490506040519080825280602002602001820160405280156100fc57816020015b60608152602001906001900390816100e75790505b509050606060008054905060405190808252806020026020018201604052801561013a57816020015b60608152602001906001900390816101255790505b509050606060008054905060405190808252806020026020018201604052801561017857816020015b60608152602001906001900390816101635790505b50905060606000805490506040519080825280602002602001820160405280156101b15781602001602082028038833980820191505090505b50905060606000805490506040519080825280602002602001820160405280156101ef57816020015b60608152602001906001900390816101da5790505b50905060008090505b60008054905081101561069d576000818154811061021257fe5b90600052602060002090600602016000018054600181600116156101000203166002900480601f0160208091040260200160405190810160405280929190818152602001828054600181600116156101000203166002900480156102b75780601f1061028c576101008083540402835291602001916102b7565b820191906000526020600020905b81548152906001019060200180831161029a57829003601f168201915b50505050508782815181106102c857fe5b6020026020010181905250600081815481106102e057fe5b90600052602060002090600602016001018054600181600116156101000203166002900480601f0160208091040260200160405190810160405280929190818152602001828054600181600116156101000203166002900480156103855780601f1061035a57610100808354040283529160200191610385565b820191906000526020600020905b81548152906001019060200180831161036857829003601f168201915b505050505086828151811061039657fe5b6020026020010181905250600081815481106103ae57fe5b90600052602060002090600602016002018054600181600116156101000203166002900480601f0160208091040260200160405190810160405280929190818152602001828054600181600116156101000203166002900480156104535780601f1061042857610100808354040283529160200191610453565b820191906000526020600020905b81548152906001019060200180831161043657829003601f168201915b505050505085828151811061046457fe5b60200260200101819052506000818154811061047c57fe5b90600052602060002090600602016003018054600181600116156101000203166002900480601f0160208091040260200160405190810160405280929190818152602001828054600181600116156101000203166002900480156105215780601f106104f657610100808354040283529160200191610521565b820191906000526020600020905b81548152906001019060200180831161050457829003601f168201915b505050505084828151811061053257fe5b60200260200101819052506000818154811061054a57fe5b906000526020600020906006020160040160009054906101000a900473ffffffffffffffffffffffffffffffffffffffff1683828151811061058857fe5b602002602001019073ffffffffffffffffffffffffffffffffffffffff16908173ffffffffffffffffffffffffffffffffffffffff1681525050600081815481106105cf57fe5b90600052602060002090600602016005018054600181600116156101000203166002900480601f0160208091040260200160405190810160405280929190818152602001828054600181600116156101000203166002900480156106745780601f1061064957610100808354040283529160200191610674565b820191906000526020600020905b81548152906001019060200180831161065757829003601f168201915b505050505082828151811061068557fe5b602002602001018190525080806001019150506101f8565b508585858585859b509b509b509b509b509b50505050505050909192939495565b60006040518060c001604052808781526020018681526020018581526020018481526020013373ffffffffffffffffffffffffffffffffffffffff1681526020018381525090806001815401808255809150509060018203906000526020600020906006020160009091929091909150600082015181600001908051906020019061074a929190610810565b506020820151816001019080519060200190610767929190610810565b506040820151816002019080519060200190610784929190610810565b5060608201518160030190805190602001906107a1929190610810565b5060808201518160040160006101000a81548173ffffffffffffffffffffffffffffffffffffffff021916908373ffffffffffffffffffffffffffffffffffffffff16021790555060a0820151816005019080519060200190610805929190610810565b505050505050505050565b828054600181600116156101000203166002900490600052602060002090601f016020900481019282601f1061085157805160ff191683800117855561087f565b8280016001018555821561087f579182015b8281111561087e578251825591602001919060010190610863565b5b50905061088c9190610890565b5090565b6108b291905b808211156108ae576000816000905550600101610896565b5090565b90565b600082601f8301126108c657600080fd5b81356108d96108d482610bf7565b610bca565b915080825260208301602083018583830111156108f557600080fd5b610900838284610cdd565b50505092915050565b600080600080600060a0868803121561092157600080fd5b600086013567ffffffffffffffff81111561093b57600080fd5b610947888289016108b5565b955050602086013567ffffffffffffffff81111561096457600080fd5b610970888289016108b5565b945050604086013567ffffffffffffffff81111561098d57600080fd5b610999888289016108b5565b935050606086013567ffffffffffffffff8111156109b657600080fd5b6109c2888289016108b5565b925050608086013567ffffffffffffffff8111156109df57600080fd5b6109eb888289016108b5565b9150509295509295909350565b6000610a048383610a24565b60208301905092915050565b6000610a1c8383610b06565b905092915050565b610a2d81610cab565b82525050565b6000610a3e82610c3d565b610a488185610c78565b9350610a5383610c23565b8060005b83811015610a84578151610a6b88826109f8565b9750610a7683610c5e565b925050600181019050610a57565b5085935050505092915050565b6000610a9c82610c48565b610aa68185610c89565b935083602082028501610ab885610c30565b8060005b85811015610af45784840389528151610ad58582610a10565b9450610ae083610c6b565b925060208a01995050600181019050610abc565b50829750879550505050505092915050565b6000610b1182610c53565b610b1b8185610c9a565b9350610b2b818560208601610cec565b610b3481610d1f565b840191505092915050565b600060c0820190508181036000830152610b598189610a91565b90508181036020830152610b6d8188610a91565b90508181036040830152610b818187610a91565b90508181036060830152610b958186610a91565b90508181036080830152610ba98185610a33565b905081810360a0830152610bbd8184610a91565b9050979650505050505050565b6000604051905081810181811067ffffffffffffffff82111715610bed57600080fd5b8060405250919050565b600067ffffffffffffffff821115610c0e57600080fd5b601f19601f8301169050602081019050919050565b6000602082019050919050565b6000602082019050919050565b600081519050919050565b600081519050919050565b600081519050919050565b6000602082019050919050565b6000602082019050919050565b600082825260208201905092915050565b600082825260208201905092915050565b600082825260208201905092915050565b6000610cb682610cbd565b9050919050565b600073ffffffffffffffffffffffffffffffffffffffff82169050919050565b82818337600083830152505050565b60005b83811015610d0a578082015181840152602081019050610cef565b83811115610d19576000848401525b50505050565b6000601f19601f830116905091905056fea265627a7a72305820d1b1ac24406a3542d9537b9054b4cb44df22a27c00c00a3475a6654dd3219c736c6578706572696d656e74616cf50037",
  "source": "pragma solidity ^0.5.0;\npragma experimental ABIEncoderV2;\n\ncontract SimpleStorage {\n\n  struct Announcement{\n    string title;\n    string subject;\n    string content;\n    string imageHash;\n    address from_;\n    string timestamp;\n  }\n\n  //上传公示\n  Announcement[] private aArr;\n  function setAnnouncement(string memory title,string memory subject,string memory content,string memory imageHash,string memory timestamp ) public {\n    aArr.push(Announcement({\n      title: title,\n      subject: subject,\n      content: content,\n      imageHash: imageHash,\n      from_: msg.sender,\n      timestamp: timestamp\n    }));\n  }\n\n  //展示全部公示\n  function getAll() public view returns (string[] memory,string[] memory,string[] memory,string[] memory,address[] memory,string[] memory) {\n    string[] memory titles=new string[](aArr.length);\n    string[] memory  subjects=new string[](aArr.length);\n    string[] memory contents=new string[](aArr.length);\n    string[] memory imageHashs=new string[](aArr.length);\n    address[] memory froms=new address[](aArr.length);\n    string[] memory timestamps=new string[](aArr.length);\n    for (uint i = 0; i < aArr.length; i++){\n      titles[i]=aArr[i].title;\n      subjects[i]=aArr[i].subject;\n      contents[i]=aArr[i].content;\n      imageHashs[i]=aArr[i].imageHash;\n      froms[i]=aArr[i].from_;\n      timestamps[i]=aArr[i].timestamp;\n    }\n    return(titles,subjects,contents,imageHashs,froms,timestamps);\n  }\n}\n",
  "sourcePath": "/Users/zytjyh/Desktop/gs/contracts/SimpleStorage.sol",
  "compiler": {
    "name": "solc",
    "version": "0.5.8+commit.23d335f2.Emscripten.clang"
  },
  "schemaVersion": "3.0.16",
  "updatedAt": "2019-10-20T04:58:44.486Z",
  "devdoc": {
    "methods": {}
  },
  "userdoc": {
    "methods": {}
  }
}